:100000000C9474000C949C000C949C000C94011CA7
:100010000C94011C0C94011C0C949C000C949C00EE
:100020000C949C000C949C000C949C000C949C00E0
:100030000C949C000C949C000C949C000C949C00D0
:100040000C94921D0C949C000C947D200C94AF2079
:100050000C949C000C949C000C949C000C949C00B0
:100060000C948E170C949C0005A84CCDB2D44EB9BC
:100070003836A9020C50B9918688083CA6AAAA2A4B
:10008000BE000000803F00000008000201000003E5
:100090000407000000000000000001020408102016
:1000A000408001020408102001020408102004040A
:1000B0000404040404040202020202020303030310
:1000C00003030000000023002600290000000000B8
:1000D000250028002B0000000000240027002A0033
:1000E0005410A416DF206C1011241FBECFEFD8E0EF
:1000F000DEBFCDBF13E0A0E0B1E0E8EEF0E502C066
:1001000005900D92AC32B107D9F726E0ACE2B3E02E
:1001100001C01D92AC33B207E1F710E0C6EED0E0AB
:1001200004C02297FE010E942627C03ED107C9F7CE
:100130000E94B1230C9467280C940000CF93DF93A6
:1001400000D000D01F92CDB7DEB7FC0129833A83DF
:100150004B835C836D8381E084878FEF9FEF92AB4D
:1001600081AB13AA14AA15AA16AACE0101960E9461
:100170006714882371F06BE071E08BE995E00E94D1
:1001800057210F900F900F900F900F90DF91CF910C
:10019000089568E171E08BE995E00E945721FFCF57
:1001A0004F925F926F927F92AF92BF92CF92DF9207
:1001B000EF92FF920F931F93CF93DF93CDB7DEB7EC
:1001C00029970FB6F894DEBF0FBECDBF5C0129831F
:1001D0003A834B835C836D8360E0CE0101960E947D
:1001E000BF146CE370E080E090E00E940B1E95016C
:1001F0002A5F3F4FA5014C5F5F4FB5016E5F7F4F98
:100200008501CE0101960E94051561E0CE0101969F
:100210000E94BF14D5016D917C9180E090E0F501C2
:1002200060877187828793870E94C5246B017C0158
:10023000D50114966D917C91159780E090E00E9415
:10024000C524A70196010E942C246E837F83888792
:100250009987F5016681778180E090E00E94C5244E
:10026000A70196010E942C242B013C01D501129676
:100270006D917C91139780E090E00E94C524A701C6
:1002800096010E942C2420E030E040E853E40E94D4
:100290007B25F501658776878787908B20E030E0A6
:1002A00040E853E46E817F81888599850E947B2593
:1002B000D50151966D937D938D939C93549720E037
:1002C00030E040E853E4C301B2010E947B25F50110
:1002D000658B768B878B908F41A052A063A074A012
:1002E000C58CD68CE78CF0A0818D928DA38DB48DBA
:1002F0008E839F83A887B987A7019601BC01CD0192
:100300000E942824A301920187FF13C06E817F8180
:10031000888599850E942824E82EFF24E7FCF09424
:10032000E094F094EE24FF0CEE1CFF24EE0CFF1C76
:1003300012C0C701B6010E942824E82EFF24E7FC62
:10034000F094EE24FF0CEE1CFF2482E090E0FC0110
:10035000EE19FF097F014AE050E06E2D8BE995E030
:100360000E944122D501F1E0EF16F104E9F022E00C
:10037000E216F10409F443C01D96CD90DD90ED9096
:10038000FC905097A7019601C701B6010E94C323B4
:10039000F501618F728F838F948FA7019601618918
:1003A00072898389948919C05196CD90DD90ED9022
:1003B000FC905497A70196011D966D917D918D91AA
:1003C0009C9150970E94C323F501618F728F838F98
:1003D000948FA7019601C701B6010E94C323D501DE
:1003E0005D966D937D938D939C939097A701960155
:1003F00055966D917D918D919C91589728C05596F9
:10040000CD90DD90ED90FC905897A70196011D9638
:100410006D917D918D919C9150970E94C323F50120
:10042000618F728F838F948FA70196016189728982
:10043000838994890E94C323D5015D966D937D9332
:100440008D939C939097A7019601C701B6010E94D6
:10045000C323F50161A372A383A394A3418D528D9D
:10046000638D748D22E030E08BE995E00E94572384
:10047000F501458D568D678D70A122E030E08BE946
:1004800095E00E945723D50191964D915D916D9114
:100490007C91949722E030E08BE995E00E9457230D
:1004A00029960FB6F894DEBF0FBECDBFDF91CF9176
:1004B0001F910F91FF90EF90DF90CF90BF90AF9082
:1004C0007F906F905F904F9008954F925F926F92E0
:1004D0007F92AF92BF92CF92DF92EF92FF920F93F3
:1004E0001F93CF93DF93CDB7DEB729970FB6F8945C
:1004F000DEBF0FBECDBF5C0129833A834B835C8393
:100500006D8360E0CE0101960E94BF146CE370E041
:1005100080E090E00E940B1E95012A5F3F4FA501ED
:100520004C5F5F4FB5016E5F7F4F8501CE01019635
:100530000E94051561E0CE0101960E94BF14F501ED
:100540006081718180E090E0608771878287938706
:100550000E94C5246B017C01F5016481758180E0F6
:1005600090E00E94C524A70196010E942C2420E05F
:1005700030E040E853E40E947B256E837F838887C8
:100580009987F5016681778180E090E00E94C5241B
:10059000A70196010E942C2420E030E040E853E4BB
:1005A0000E947B252B013C01F5016281738180E073
:1005B00090E00E94C524A70196010E942C2420E00F
:1005C00030E040E853E40E947B25F501218D328D17
:1005D000438D548D0E94C3236B017C0120E030E0E9
:1005E000A9010E947725181624F0F7FAF094F7F87D
:1005F000F094F501C586D686E786F08A258D368D7E
:10060000478D50A16E817F81888599850E94C32383
:100610006B017C0120E030E0A9010E9477251816CB
:1006200024F0F7FAF094F7F8F094F501C18AD28A31
:10063000E38AF48A21A132A143A154A1C301B201EA
:100640000E94C3236B017C0120E030E0A9010E94DD
:100650007725181624F0F7FAF094F7F8F094F501DE
:10066000C58AD68AE78AF08E29960FB6F894DEBF3F
:100670000FBECDBFDF91CF911F910F91FF90EF90F3
:10068000DF90CF90BF90AF907F906F905F904F9032
:1006900008954F925F926F927F928F929F92AF9246
:1006A000BF92CF92DF92EF92FF920F931F93CF935F
:1006B000DF93EC01C988DA88EB88FC882D853E85BC
:1006C0004F855889C701B6010E94C4232D893E89F0
:1006D0004F89588D0E94C4230E949424882777FD57
:1006E0008095982F0E94C7244B015C019B01AC01AF
:1006F000C701B6010E942C2423EC35EF48EA5EE3E3
:100700000E94C3236B017C0120E030E0A9010E941C
:10071000772518163CF420E030E048EC52E4C7019D
:10072000B60107C0C701B601905820E030E048ECA0
:1007300052E40E947B2522E030E0AB01BC018BE952
:1007400095E00E945723C988DA88EB88FC88A501C8
:100750009401C701B6010E942C2423EC35EF48EA2E
:100760005EE30E94C3234B015C0120E030E0A9015D
:100770000E94772509A91AA918163CF420E030E058
:1007800048EC52E4C501B40107C0C501B40190585A
:1007900020E030E048EC52E40E947B2520E030E08D
:1007A00040E751E40E947725181664F58D889E88ED
:1007B000AF88B88C4D845E846F847888A7019601D9
:1007C000C301B2010E947725A501940118164CF4CB
:1007D000C301B2010E94772518166CF4E12CF12CAC
:1007E0000DC0C701B6010E947725181624F4EE2427
:1007F000E394F12C03C032E0E32EF12C0E151F051B
:1008000019F43EC0C8014AC08C85882381F01C863B
:100810000E94DC1D0E94C5246BAB7CAB8DAB9EABF4
:1008200065E471E08BE995E00E944A212FC00E94A7
:10083000DC1D0E94C5242BA93CA94DA95EA90E94DC
:10084000C32320E030E04AEF54E40E9477251816D5
:10085000ECF4FAAAE9AA81E08C871BAA1CAA1DAABB
:100860001EAA6AE571E08BE995E00E944A2169A918
:100870007AA94AE050E08BE995E00E94142206C074
:1008800081E08C871BAA1CAA1DAA1EAA6EE671E035
:100890008BE995E00E94572189A99AA9DF91CF9110
:1008A0001F910F91FF90EF90DF90CF90BF90AF908E
:1008B0009F908F907F906F905F904F900895FC0174
:1008C0001486158616861786108A118A128A138A4C
:1008D00040E050E06FE773E4408751876287738799
:1008E0000895DF92EF92FF920F931F93CF93DF93C0
:1008F0007B01142FD22EC0E0D0E0402F6D2D812F30
:100900000E94D41A9B01AC01BE01C7010E946F1A5C
:10091000C7010E9453192196C832D10571F7DF91A2
:10092000CF911F910F91FF90EF90DF9008950F935B
:100930001F93CF93DF938C01EB010E94DC1D0E947B
:10094000C52420E030E04AEF53E40E942C240E94AA
:10095000FE2520E030E040E85FEB0E94C32320E06A
:1009600030E040EA52E40E947B2520E030E040E0A5
:100970005FE30E947B2520E030E040EA51E40E94E2
:10098000C423F80160877187828793870E94992426
:10099000CE010E94DD1A00E010E044E664E684E641
:1009A0000E94D41A9B01AC01B801CE010E946F1ABB
:1009B000CE010E9453190F5F1F4F0832110569F7CE
:1009C000DF91CF911F910F9108952F923F924F92F7
:1009D0005F926F927F928F929F92AF92BF92CF92CF
:1009E000DF92EF92FF920F931F93CF93DF93CDB7D8
:1009F000DEB7AF970FB6F894DEBF0FBECDBF1C01B8
:100A00007FA76EA749A72DA7EDA2FEA20FA318A747
:100A10002501360160966CAD7DAD8EAD9FAD6097C2
:100A20000E94C7246B017C0120E030E040EC50E4E0
:100A30000E947B259B01AC01C701B6010E942C24BA
:100A40006B017C01D1016D937D938D939C931397E2
:100A50009B01AC0160E070E080E89FE30E942C24E1
:100A60004B015C01F101648375838683978320E0E9
:100A700030E040E85EE3C701B6010E947B259B01A0
:100A8000AC016DA17EA18FA198A50E94C42323EC87
:100A900035EF48E450E40E947B259B01AC010E94A5
:100AA000C423A50194010E947B250E94FE2520E01D
:100AB00030E040E85FEB0E94C32320E030E04DE4EB
:100AC00053E40E947B2520E030E040E05FE30E9499
:100AD0007B2520E030E048E452E40E94C423D101A9
:100AE00018966D937D938D939C931B970E949924E8
:100AF0008EA59FA50E94DD1AC12CD12C76019701ED
:100B00008601B701A601CE0149960E94CF0B97013D
:100B10008601B701A601CE010D960E94CF0BB9A5A3
:100B2000B23739F49701860140E050E06FE773E493
:100B30000CC0E9A5E736D9F4C12CD12C760100E030
:100B400010E02FE733E4B701A601CE0101960E9421
:100B5000CF0B8CE0FE013196DE01599601900D928B
:100B60008A95E1F7CE0101960E94E90B15C0F9A51F
:100B7000F23661F4C12CD12C5FE7E52E53E4F52E5B
:100B800000E010E09801B901A801DFCF64E971E04D
:100B90008BE995E00E9457212DA5223751F4C12CF5
:100BA000D12C76019701860140E050E06FE773E4B5
:100BB0000CC03DA53736D9F4C12CD12C760100E00C
:100BC00010E02FE733E4B701A601CE0101960E94A1
:100BD000CF0B8CE0FE013196DE011D9601900D9247
:100BE0008A95E1F7CE0101960E94E90B15C04DA54B
:100BF000423661F4C12CD12C4FE7E42E43E4F42EAD
:100C000000E010E09801B901A801DFCF6EE971E0C2
:100C10008BE995E00E94572159A5523709F04BC046
:100C2000C301B2010E9494241F921F921F922FEFC2
:100C30002F931CEDA12EB12CC12CD12C1AE0E12E4A
:100C4000F12C00E010E020E030E0A9010E946923CF
:100C50000E94C724D10194966D937D938D939C93AC
:100C6000979728966CAD7DAD8EAD9FAD28970E946D
:100C700094241F921F921F923EE1932E9F92A12CCB
:100C8000B12C650120E030E0A9010E9469230E9497
:100C9000C724F10160A771A782A793A72C966CAD1A
:100CA0007DAD8EAD9FAD2C970E9494241F921F9214
:100CB0001F929F92A1C0F9A5F73609F04FC0289660
:100CC0006CAD7DAD8EAD9FAD28970E9494241F9290
:100CD0001F921F9222E32F93A12CB12C65011AE0E1
:100CE000E12EF12C00E010E020E030E0A9010E94AC
:100CF00069230E94C724D10194966D937D938D93AF
:100D00009C939797C301B2010E9494241F921F9253
:100D10001F922FEF2F93ACEDAA2EB12CC12CD12C0A
:100D200020E030E0A9010E9469230E94C724F1015C
:100D300060A771A782A793A72C966CAD7DAD8EADF1
:100D40009FAD2C970E9494241F921F921F921F9276
:100D5000B2E3AB2EB12CC12CD12C4EC0F9A5F2368A
:100D600009F05DC02C966CAD7DAD8EAD9FAD2C971E
:100D70000E9494241F921F921F9242E3942E9F92EE
:100D8000A12CB12C65011AE0E12EF12C00E010E05D
:100D900020E030E0A9010E9469230E94C724D1010C
:100DA00094966D937D938D939C93979728966CADB5
:100DB0007DAD8EAD9FAD28970E9494241F921F9207
:100DC0001F929F9220E030E0A9010E9469230E94B7
:100DD000C724F10160A771A782A793A7C301B2013D
:100DE0000E9494241F921F921F922FEF2F93ECEDDD
:100DF000AE2EB12CC12CD12C20E030E0A9010E94F4
:100E000069230E94C724D1019C966D937D938D9395
:100E10009C939F970FB6F894DEBF0FBECDBFFDA584
:100E2000F23709F04BC0C301B2010E9494241F9213
:100E30001F921F922FEF2F931CEDA12EB12CC12CCE
:100E4000D12C1AE0E12EF12C00E010E020E030E09F
:100E5000A9010E9469230E94C724D101D0966D93F5
:100E60007D938D939C93D39728966CAD7DAD8EAD7D
:100E70009FAD28970E9494241F921F921F923EE1DB
:100E8000932E9F92A12CB12C650120E030E0A901A6
:100E90000E9469230E94C724F10164AB75AB86AB45
:100EA00097AB2C966CAD7DAD8EAD9FAD2C970E940F
:100EB00094241F921F921F929F92A1C0FDA5F73606
:100EC00009F04FC028966CAD7DAD8EAD9FAD2897D3
:100ED0000E9494241F921F921F9222E32F93A12C11
:100EE000B12C65011AE0E12EF12C00E010E020E0C9
:100EF00030E0A9010E9469230E94C724D101D09645
:100F00006D937D938D939C93D397C301B2010E94FF
:100F100094241F921F921F922FEF2F93ACEDAA2EB5
:100F2000B12CC12CD12C20E030E0A9010E94692312
:100F30000E94C724F10164AB75AB86AB97AB2C96CE
:100F40006CAD7DAD8EAD9FAD2C970E9494241F9209
:100F50001F921F921F92B2E3AB2EB12CC12CD12C49
:100F60004EC0FDA5F23609F05DC02C966CAD7DAD8E
:100F70008EAD9FAD2C970E9494241F921F921F92BA
:100F800042E3942E9F92A12CB12C65011AE0E12E30
:100F9000F12C00E010E020E030E0A9010E9469237C
:100FA0000E94C724D101D0966D937D938D939C931D
:100FB000D39728966CAD7DAD8EAD9FAD28970E94DE
:100FC00094241F921F921F929F9220E030E0A9016B
:100FD0000E9469230E94C724F10164AB75AB86AB04
:100FE00097ABC301B2010E9494241F921F921F92DB
:100FF0002FEF2F93ECEDAE2EB12CC12CD12C20E095
:1010000030E0A9010E9469230E94C724D101D8962B
:101010006D937D938D939C93DB970FB6F894DEBF11
:101020000FBECDBF20E030E040E85FE36DA17EA1C0
:101030008FA198A50E94282418160CF5CE010D96B4
:101040000E94E90BCE0149960E94E90BAF960FB6BC
:10105000F894DEBF0FBECDBFDF91CF911F910F91EE
:10106000FF90EF90DF90CF90BF90AF909F908F90C8
:101070007F906F905F904F903F902F9008952DA19B
:101080003EA14FA158A560E070E080E89FE30E9478
:10109000C3236B017C012D853E854F8558890E94B5
:1010A0007B254B015C01298D3A8D4B8D5C8D6DA1AB
:1010B0007EA18FA198A50E947B259B01AC01C50153
:1010C000B4010E94C4234B015C01D10194962D917F
:1010D0003D914D915C9197976DA17EA18FA198A5AF
:1010E0000E947B252B013C01F10120A931A942A9D5
:1010F00053A9C701B6010E947B259B01AC01C30126
:10110000B2010E94C4239B01AC01C501B4010E943D
:10111000C4230E94992469A77AA78BA79CA7D10111
:1011200054966D937D938D939C93579729893A8913
:101130004B895C89C701B6010E947B254B015C018C
:101140002D8D3E8D4F8D58A16DA17EA18FA198A5AB
:101150000E947B259B01AC01C501B4010E94C42300
:101160004B015C01F10120A531A542A553A56DA15C
:101170007EA18FA198A50E947B252B013C01D10166
:10118000D4962D913D914D915C91D797C701B601B1
:101190000E947B259B01AC01C301B2010E94C423C4
:1011A0009B01AC01C501B4010E94C4230E94992493
:1011B0002B013C01F101608F718F828F938F2D89FC
:1011C0003E894F89588DC701B6010E947B254B018E
:1011D0005C0129A13AA14BA15CA16DA17EA18FA1C7
:1011E00098A50E947B259B01AC01C501B4010E941A
:1011F000C4234B015C01D1019C962D913D914D91F1
:101200005C919F976DA17EA18FA198A50E947B25DF
:101210006DA37EA38FA398A7F10120AD31AD42ADA0
:1012200053ADC701B6010E947B259B01AC016DA1A6
:101230007EA18FA198A50E94C4239B01AC01C5018A
:10124000B4010E94C4230E949924D1015C966D933D
:101250007D938D939C935F9729A53AA54BA55CA59B
:101260002F3F31054105510559F050F0C12CD12CCB
:101270007601CA945496CD92DD92ED92FC925797E6
:10128000BFEF4B1651046104710451F048F0C12CBA
:10129000D12C7601CA94F101C08ED18EE28EF38EEC
:1012A0006F3F71058105910551F048F08FEF90E097
:1012B000A0E0B0E0F101848F958FA68FB78FD101A8
:1012C0005C964C915C9758966C91589754968C917B
:1012D0000E94D41AF10160A371A382A393A3E12C0D
:1012E000F12CD10190962D913D914D915C91939768
:1012F000B7018EA59FA50E946F1A8EA59FA50E947B
:101300005319BFEFEB1AFB0AE8E2EE16F10449F7B6
:1013100095CE2F923F924F925F926F927F928F92D3
:101320009F92AF92BF92CF92DF92EF92FF920F9374
:101330001F93CF93DF93CDB7DEB72B970FB6F894FB
:10134000DEBF0FBECDBF1C017A8369830B831C8374
:101350002D833E83260137018F829886A986BA861F
:10136000423709F085C0C901B8010E9494241F9238
:101370001F921F922FEF2F933CEDA32EB12CC12C67
:10138000D12C1AE0E12EF12C00E010E020E030E05A
:10139000A9010E9469230E94C724F10164A375A3D7
:1013A00086A397A36F81788589859A850E94942466
:1013B0001F921F921F925EE1952E9F92A12CB12C3D
:1013C000650120E030E0A9010E9469230E94C72442
:1013D000F10160A771A782A793A7C301B2010E9480
:1013E00094241F921F921F929F9220E030E0A90147
:1013F0000E9469230E94C724F10164A775A786A7EC
:1014000097A70FB6F894DEBF0FBECDBF612C712C2D
:10141000F10164A575A586A597A50E949924462F7C
:10142000F10160A571A582A593A54B870E9499241F
:10143000962EF10164A175A186A197A10E9499241D
:10144000862F4B85692D0E94D41A9B01AC01B301F4
:1014500089819A810E946F1A89819A810E94531909
:10146000FFEF6F1A7F0A88E26816710489F617C1C8
:10147000473609F08BC0C701B6010E9494241F9221
:101480001F921F922CE32F93A12CB12C65011AE01F
:10149000E12EF12C00E010E020E030E0A9010E94F4
:1014A00069230E94C724F10164A375A386A397A3AF
:1014B0006B817C818D819E810E9494241F921F925A
:1014C0001F922FEF2F93B8ECAB2EB12CC12CD12C47
:1014D00020E030E0A9010E9469230E94C724F101A5
:1014E00060A771A782A793A76F81788589859A8560
:1014F0000E9494241F921F921F921F922CE3A22EEF
:10150000B12CC12CD12C20E030E0A9010E9469232C
:101510000E94C724F10164A775A786A797A70FB6F5
:10152000F894DEBF0FBECDBF612C712CF10164A514
:1015300075A586A597A50E949924462FF10160A55F
:1015400071A582A593A54B870E949924962EF1013F
:1015500064A175A186A197A10E949924862F4B852D
:10156000692D0E94D41A9B01AC01B30189819A8133
:101570000E946F1A89819A810E945319FFEF6F1A96
:101580007F0A88E26816710489F689C0423609F03C
:1015900086C0C701B6010E9494241F921F921F9219
:1015A0002CE32F93A12CB12C65011AE0E12EF12C34
:1015B00000E010E020E030E0A9010E9469230E94D1
:1015C000C724F10164A375A386A397A36F817885CF
:1015D00089859A850E9494241F921F921F922AE562
:1015E0002F9320E030E0A9010E9469230E94C724C4
:1015F000F10160A771A782A793A76B817C818D8180
:101600009E810E9494241F921F921F922FEF2F936E
:10161000FCEDAF2EB12CC12CD12C20E030E0A90183
:101620000E9469230E94C724F10164A775A786A7B9
:1016300097A70FB6F894DEBF0FBECDBF612C712CFB
:10164000F10164A575A586A597A50E949924462F4A
:10165000F10160A571A582A593A54B870E949924ED
:10166000962EF10164A175A186A197A10E949924EB
:10167000862F4B85692D0E94D41A9B01AC01B301C2
:1016800089819A810E946F1A89819A810E945319D7
:10169000FFEF6F1A7F0A88E26816710489F62B96AD
:1016A0000FB6F894DEBF0FBECDBFDF91CF911F9173
:1016B0000F91FF90EF90DF90CF90BF90AF909F90F1
:1016C0008F907F906F905F904F903F902F900895F4
:1016D000FC011782108640E157E260E070E041872C
:1016E00052876387748783E7808308950F931F93DE
:1016F000CF93DF93EC0160EE71E08BE995E00E94FF
:101700004A214B815C816D817E812AE030E08BE94A
:1017100095E00E94342262EF71E08BE995E00E942F
:101720004A210E94DC1DAB01BC010B811C812D8173
:101730003E81401B510B620B730B2AE030E08BE9BA
:1017400095E00E9458220E94DC1D0B811C812D8196
:101750003E81601B710B820B930B09851A852B85CB
:101760003C85601771078207930788F08A81888318
:1017700080E38A8381E08F83188663E072E08BE9DF
:1017800095E0DF91CF911F910F910C9457211F820B
:1017900081E08887DF91CF911F910F910895CF92BB
:1017A000DF92EF92FF920F931F93FC0140835183CE
:1017B000628373830483158326833783C086D1862F
:1017C000E286F3861F910F91FF90EF90DF90CF900C
:1017D000089508956115710581F0DB010D900020D9
:1017E000E9F7AD0141505109461B570BDC01ED9162
:1017F000FC910280F381E02D099480E090E008954F
:101800006F927F928F929F92AF92BF92CF92DF9210
:10181000EF92FF920F931F93CF93DF9300D000D0EE
:101820001F92CDB7DEB726E040E855E260E070E0F9
:101830008BE995E00E941B2060E272E08BE995E065
:101840000E944A2140E855E260E070E086E493E0BF
:101850000E94041D80E00E94801E80E00E94831E82
:1018600090938D0480938C0481E00E94831E90935A
:101870008B0480938A0482E00E94831E90938904E3
:10188000809388048CE090E00E94C0233C0160912A
:10189000880470918904882777FD8095982F0E948D
:1018A000C7246B017C0160918A0470918B048827A6
:1018B00077FD8095982F0E94C7244B015C016091B1
:1018C0008C0470918D04882777FD8095982F0E9455
:1018D000C724AB01BC0195018401C3010E94CF0B59
:1018E00070927504609274048CE090E00E94C023B2
:1018F0005C01C12CD12C760100E010E020E83FE330
:10190000B901A8010E94CF0BB0927304A092720497
:1019100085E0E1E4F3E0DE01119601900D928A95F5
:10192000E1F787E390E00E94C0237C0129813A819E
:101930004B815C816D810E949E00F0926F04E09269
:101940006E048CE293E00E94CF188CE390E00E943A
:10195000C0237C010E945F04F0926D04E0926C044D
:101960008FEF9FEF90937B0480937A048DE090E05B
:101970000E94C0237C010E94680BF0926B04E092ED
:101980006A0483E7F7018083109276046BE172E0CA
:101990008BE995E00F900F900F900F900F90DF91D3
:1019A000CF911F910F91FF90EF90DF90CF90BF905C
:1019B000AF909F908F907F906F900C944A21CF9220
:1019C000DF92EF92FF920F931F93CF93DF932091BB
:1019D000410330914203409143035091440360918D
:1019E000450380916E0490916F040E94650280917E
:1019F0006E0490916F040E94490390937D0480933C
:101A00007C0420917A0430917B042817390709F46B
:101A1000BDC090937B0480937A0481309105A1F13D
:101A20008230910509F45CC0892B09F089C066E217
:101A300072E086E493E00E94EA0B8CE090E00E9462
:101A4000C023EC01C12CD12C76019701860140E026
:101A500050E06FE773E40E94CF0BD0937104C09302
:101A60007004E0916A04F0916B0482E782838091B4
:101A7000650390916603A0916703B0916803838327
:101A80009483A583B68362C06DE272E086E493E03E
:101A90000E94EA0B8CE090E00E94C023EC01C12C74
:101AA000D12C760100E010E02FE733E4B701A60166
:101AB0000E94CF0BD0937104C0937004E0916A042C
:101AC000F0916B048091650390916603A091670388
:101AD000B091680383839483A583B68387E62EC081
:101AE00066E372E086E493E00E94EA0B8CE090E00B
:101AF0000E94C023EC01C12CD12C8FE7E82E83E497
:101B0000F82E00E010E09801B901A801CE010E9472
:101B1000CF0BD0937104C0937004E0916A04F091EC
:101B20006B048091650390916603A0916703B09167
:101B3000680383839483A583B68382E6828306C089
:101B40006EE372E086E493E00E94EA0BE0916A049F
:101B5000F0916B048081833759F48281808380E324
:101B6000828381E087836FEF8CE293E00E94DD1A2D
:101B700066E472E086E493E0DF91CF911F910F91CC
:101B8000FF90EF90DF90CF900C94EA0BDF91CF9114
:101B90001F910F91FF90EF90DF90CF9008950F93DA
:101BA0001F93CF93DF93EC0168E472E08BE995E03B
:101BB0000E944A21E0917204F091730420813181E6
:101BC00042815381688179818A819B810E94C323EC
:101BD0000E9494249B0177FF04C022273327261BF1
:101BE000370B4AE050E0B9018BE995E00E941C22D6
:101BF0006CE472E08BE995E00E944A21E091720466
:101C0000F091730424813581468157816C817D81F7
:101C10008E819F810E94C3230E9494249B0177FFA1
:101C200004C022273327261B370B4AE050E0B901B6
:101C30008BE995E00E941C2260E572E08BE995E05B
:101C40000E944A21E0917204F0917304208531854D
:101C500042855385688579858A859B850E94C32343
:101C60000E9494249B0177FF04C022273327261B60
:101C7000370B4AE050E0B9018BE995E00E941C2245
:101C800010927704609165037091660380916703F9
:101C9000909168030E94C524609384047093850426
:101CA00080938604909387049B01AC010E94C32318
:101CB00020E030E04AE754E40E94772518160CF043
:101CC0006FC064E572E08BE995E00E9457210E94A5
:101CD000DC1D6093650370936603809367039093A4
:101CE00068030091780410917904109373040093B1
:101CF0007204F801208131814281538168817981A8
:101D00008A819B810E94C3230E9494249B0177FFB8
:101D100004C022273327261B370B2430310574F5E6
:101D2000F80124813581468157816C817D818E81C6
:101D30009F810E94C3230E9494249B0177FF04C0CB
:101D400022273327261B370B24303105BCF4F8013A
:101D50002085318542855385688579858A859B856F
:101D60000E94C3230E9494249B0177FF04C0222772
:101D70003327261B370B2430310534F081E0809364
:101D800077046DE572E004C01092770460E772E0BA
:101D90008BE995E0DF91CF911F910F910C94572122
:101DA000D0937904C0937804DF91CF911F910F9164
:101DB0000895CF92DF92EF92FF920F931F93CF93EC
:101DC000DF9380E00E94831E90938D0480938C04A7
:101DD00061E070E080E090E00E940B1E81E00E94D4
:101DE000831E90938B0480938A0461E070E080E00E
:101DF00090E00E940B1E82E00E94831E9093890453
:101E00008093880461E070E080E090E00E940B1E07
:101E100060918C0470918D04882777FD8095982FB0
:101E20000E94C72420E030E040E054E40E94C32335
:101E30002AE939E94CEC52E40E942C2420E030E0FD
:101E40004EEF52E40E947B2520E030E04EEF52E45A
:101E50000E94C4230E94DE256B017C0120E030E05B
:101E6000A9010E94282487FD10C020E030E04FE740
:101E700053E4C701B6010E94772518164CF0C7013C
:101E8000B6010E949424EB0105C0C0E0D0E002C07E
:101E9000CFEFD0E0D0938304C093820460918A0492
:101EA00070918B04882777FD8095982F0E94C72416
:101EB00020E030E040E054E40E94C3232AE939E9FD
:101EC0004CEC52E40E942C2420E030E04EEF52E42F
:101ED0000E947B2520E030E04EEF52E40E94C423B4
:101EE0000E94DE256B017C0120E030E0A9010E9408
:101EF000282487FD10C020E030E04FE753E4C701FD
:101F0000B6010E94772518164CF0C701B6010E9451
:101F100094248B0105C000E010E002C00FEF10E038
:101F20001093810400938004609188047091890467
:101F3000882777FD8095982F0E94C72420E030E005
:101F400040E054E40E94C3232AE939E94CEC52E40E
:101F50000E942C2420E030E04EEF52E40E947B25CA
:101F600020E030E04EEF52E40E94C4230E94DE25C0
:101F70006B017C0120E030E0A9010E94282487FD4C
:101F800010C020E030E04FE753E4C701B6010E94E3
:101F9000772518164CF0C701B6010E9494246B01F6
:101FA00006C0C12CD12C03C0CC24CA94D12CD09211
:101FB0007F04C0927E04E0907404F0907504BE012A
:101FC000882777FD8095982F0E94C72420E030E075
:101FD00040E251E40E947B2520E030E04FE753E4EB
:101FE0000E942C2420E030E0A9010E94C423F701C4
:101FF0006083718382839383B801882777FD8095FE
:10200000982F0E94C72420E030E040E251E40E9473
:102010007B2520E030E04FE753E40E942C2420E0B1
:1020200030E0A9010E94C423F7016483758386838D
:102030009783B601882777FD8095982F0E94C72443
:1020400020E030E040E251E40E947B2520E030E0D7
:102050004FE753E40E942C2420E030E0A9010E94C5
:10206000C423F7016087718782879387C701DF9157
:10207000CF911F910F91FF90EF90DF90CF900C9434
:10208000CF0D8091690390916A03EBE6F3E09F0125
:102090002B5633408217930714F01192F8CF109209
:1020A0006A0310926903089520E04BE06AE086E439
:1020B00093E00E94D41C41E050E06BEE70E081E4BC
:1020C00093E00E943F1422E530E043E068E270E0D4
:1020D0008CE293E00C94471A8CE293E00E94BB18C8
:1020E00086E493E00C947B1C2F923F924F925F9278
:1020F0006F927F928F929F92AF92BF92CF92DF9218
:10210000EF92FF920F931F93CF93DF930E94DC1DFA
:1021100060936503709366038093670390936803ED
:102120000E94DC1D683E73408105910588F4209172
:102130004103309142034091430350914403609125
:10214000450380916E0490916F040E94D000E8CF07
:10215000E0916A04F0916B0460818BE995E00E9444
:102160006921E0916A04F0916B048081833791F5D5
:1021700080917604811115C064E872E08BE995E0E6
:102180000E9457210E94D90E6CE273E080916C048A
:1021900090916D040E949704809177048093760457
:1021A000E7CF60E972E08BE995E00E94572181E07A
:1021B0008093760408EC28EC48EC6CE273E08091A4
:1021C0006C0490916D040E9471046FEF8CE293E0B7
:1021D0000E94DD1A0E94DF0C86E493E00E94AA1B95
:1021E000892BE9F0E0916A04F0916B0480818337D8
:1021F000B1F086E493E00E941E1B833209F4D1C241
:102200002091690330916A03A9014F5F5F4F50939A
:102210006A0340936903F901E559FC4F8083E0911B
:102220006A04F0916B048281803309F450C080818C
:10223000833709F44CC067E972E08BE995E00E94AE
:102240004A21E0916A04F0916B0460818BE995E08A
:102250000E94692167EA72E08BE995E00E944A21B9
:10226000E0916A04F0916B0462818BE995E00E9431
:102270006921C0916A04D0916B048885811124C0C2
:1022800060906C0470906D04C0906503D0906603FC
:10229000E0906703F0906803C701B6010E94C5246F
:1022A000F301648775878687978769857A858B852B
:1022B0009C856C0D7D1D8E1D9F1D0E94C524F30104
:1022C000608B718B828B938BCE010E94760BE09199
:1022D0006A04F0916B04808581113EC00E94D90E82
:1022E000C0916A04D0916B048F81882309F45CC289
:1022F000E0917404F091750480849184A284B38485
:10230000C480D580E680F780208031804280538071
:1023100060906C0470906D04609165037091660329
:1023200080916703909168030E94C5249F938F93C7
:102330007F936F939201810148816CE273E0C30146
:102340000E948909E0916A04F0916B0410860F9055
:102350000F900F900F9028C267EB72E08BE995E029
:102360000E944A21E0916C04F0916D0444855585EA
:102370006685778522E030E08BE995E00E94552361
:1023800066EC72E08BE995E00E944A21E0916C04D2
:10239000F0916D04408951896289738922E030E0AF
:1023A0008BE995E00E94552368ED72E08BE995E09A
:1023B0000E944A21C0916C04D0916D044C845D84CC
:1023C0006E847F84609165037091660380916703DA
:1023D000909168030E94C524A30192010E94C32327
:1023E0006B017C01A3019201688979898A899B89A3
:1023F0000E94C3239B01AC01C701B6010E942C249B
:1024000020E030E0A9010E94C4232B013C0120E020
:1024100030E040E85FE3C301B2010E94282487FF57
:102420005DCF80E00E94831E90938D0480938C0486
:1024300061E070E080E090E00E940B1E81E00E946D
:10244000831E90938B0480938A0461E070E080E0A7
:1024500090E00E940B1E82E00E94831E90938904EC
:102460008093880461E070E080E090E00E940B1EA1
:1024700060918C0470918D04882777FD8095982F4A
:102480000E94C72420E030E040E054E40E94C323CF
:102490002AE939E94CEC52E40E942C2420E030E097
:1024A0004EEF52E40E947B2520E030E04EEF52E4F4
:1024B0000E94C4230E94DE252B013C0120E030E075
:1024C000A9010E94282487FD10C020E030E04FE7DA
:1024D00053E4C301B2010E94772518164CF0C301E2
:1024E000B2010E949424EB0105C0C0E0D0E002C01C
:1024F000CFEFD0E0D0938304C093820460918A042C
:1025000070918B04882777FD8095982F0E94C724AF
:1025100020E030E040E054E40E94C3232AE939E996
:102520004CEC52E40E942C2420E030E04EEF52E4C8
:102530000E947B2520E030E04EEF52E40E94C4234D
:102540000E94DE252B013C0120E030E0A9010E9421
:10255000282487FD10C020E030E04FE753E4C3019A
:10256000B2010E94772518164CF0C301B2010E94F7
:1025700094248B0105C000E010E002C00FEF10E0D2
:102580001093810400938004609188047091890401
:10259000882777FD8095982F0E94C72420E030E09F
:1025A00040E054E40E94C3232AE939E94CEC52E4A8
:1025B0000E942C2420E030E04EEF52E40E947B2564
:1025C00020E030E04EEF52E40E94C4230E94DE255A
:1025D0002B013C0120E030E0A9010E94282487FD66
:1025E00010C020E030E04FE753E4C301B2010E9485
:1025F000772518164CF0C301B2010E9494246B0198
:1026000006C0C12CD12C03C0CC24CA94D12CD092AA
:102610007F04C0927E04E0907404F0907504BE01C3
:10262000882777FD8095982F0E94C72420E030E00E
:1026300040E251E40E947B2520E030E04FE753E484
:102640000E942C2420E030E0A9010E94C423F7015D
:102650006083718382839383B801882777FD809597
:10266000982F0E94C72420E030E040E251E40E940D
:102670007B2520E030E04FE753E40E942C2420E04B
:1026800030E0A9010E94C423F70164837583868327
:102690009783B601882777FD8095982F0E94C724DD
:1026A00020E030E040E251E40E947B2520E030E071
:1026B0004FE753E40E942C2420E030E0A9010E945F
:1026C000C423F7016087718782879387E0916C0448
:1026D000F0916D0480889188A288B38844845584E1
:1026E000668477840E94DC1D0E94C524A3019201A8
:1026F0000E94C3236B017C01A3019201C501B401B7
:102700000E94C3239B01AC01C701B6010E942C2487
:1027100020E030E0A9010E94C4232B013C01A091DC
:102720006A04B0916B04E0917404F0917504A08088
:10273000B180C280D3801C968C911C978F931B967E
:102740008C911B978F931A968C911A978F93199649
:102750008C9119978F9383858F9382858F93818531
:102760008F9380858F9387818F9386818F938581C7
:102770008F9384818F93830172012C9112964C91D7
:102780006CE273E080916C0490916D040E94E5040A
:102790008DB79EB70C960FB6F8949EBF0FBE8DBF37
:1027A00036CE0E9441103BCDDF91CF911F910F910A
:1027B000FF90EF90DF90CF90BF90AF909F908F9061
:1027C0007F906F905F904F903F902F900895DC0125
:1027D000ED91FC910190F081E02D09941F93CF932E
:1027E000DF9300D000D0CDB7DEB7162F69E270E0DE
:1027F0008EE894E029833A834B835C830E942816F9
:102800001068612F70E08EE894E00E94E713E09179
:102810008E04F0918F0429813A814B815C81CA0139
:10282000B9017727882799270190F081E02D8EE85C
:1028300094E009958EE894E00F900F900F900F9020
:10284000DF91CF911F910C94A116CF93DF93EC01F0
:1028500021E030E040E050E060E00E94EE1363E0F1
:1028600070E080E090E00E940B1E23E030E040E04A
:1028700050E060E0CE01DF91CF910C94EE13FC01AB
:10288000108274836383528341830895CF93C62F4C
:1028900069E270E08EE894E00E942816C0686C2F10
:1028A00070E08EE894E00E94E7138EE894E00E94C6
:1028B000A11641E050E069E270E08EE894E00E94E9
:1028C0009E168EE894E00E948515CF910895CF93CF
:1028D000DF93EC018EE894E00E94141662E1CE01D1
:1028E0000E944614843411F0803189F481E0888399
:1028F0006B817C81CE010E948B1469817A81CE012B
:102900000E94A514CE010E94251481E001C080E040
:10291000DF91CF9108950F931F93CF93DF93EC0135
:102920008B018881811103C0CE010E946714980138
:1029300040E050E061E0CE010E94EE131C830B8367
:10294000DF91CF911F910F9108950F931F93CF9314
:10295000DF93EC018B018881811103C0CE010E94BD
:102960006714980140E050E06FE0CE010E94EE1342
:102970001A830983DF91CF911F910F9108951F93BF
:10298000CF93DF93EC01162F60E00E944614282FAE
:10299000112311F0206101C02F7E30E040E050E0B3
:1029A00060E0CE01DF91CF911F910C94EE13CF9395
:1029B000DF93C62F69E270E08EE894E00E9428164B
:1029C000C0686C2F70E08EE894E00E94E7138EE8F8
:1029D00094E00E94A11642E050E069E270E08EE8C7
:1029E00094E00E949E168EE894E00E948515EC010A
:1029F0008EE894E00E94851520E030E0382FC90170
:102A00008C2B9D2BDF91CF910895AF92BF92CF92E7
:102A1000DF92EF92FF920F931F93CF93DF93EC011E
:102A20007B015A0169018881811103C0CE010E9496
:102A3000671464E1CE010E94D714F801918380836A
:102A400066E1CE010E94D714F7019183808368E18B
:102A5000CE010E94D714F501918380836AE1CE01F3
:102A60000E94D714F601918380838B819C81853DE0
:102A7000910519F154F4009729F1803C910591F5E5
:102A80006AE970E080E090E021C0863F910581F026
:102A90008F3F910541F08B3E910521F562E370E097
:102AA00080E090E013C063E070E080E090E00EC052
:102AB00068E170E080E090E009C065E670E080E0E9
:102AC00090E004C06CEB72E080E090E0DF91CF9189
:102AD0001F910F91FF90EF90DF90CF90BF90AF903C
:102AE0000C940B1EDF91CF911F910F91FF90EF90EF
:102AF000DF90CF90BF90AF9008958091BE0490E09A
:102B00002091BF04821B910908952091BF048091F8
:102B1000BE04281750F4E22FF0E0E054FB4F808110
:102B200090E02F5F2093BF0408958FEF9FEF0895EB
:102B3000E091BF048091BE04E81730F4F0E0E05467
:102B4000FB4F808190E008958FEF9FEF08950895E7
:102B5000CF92DF92EF92FF920F931F93CF93DF9369
:102B60007C01CB018A0120919A04222389F0EB0198
:102B70006B01C40ED51ECC15DD0569F06991D70136
:102B8000ED91FC910190F081E02DC7010995F3CF03
:102B9000642F0E946517C801DF91CF911F910F919B
:102BA000FF90EF90DF90CF900895CF93DF931F9227
:102BB000CDB7DEB7698320919A042223D1F020910A
:102BC0009B04203240F021E030E0FC01338322837B
:102BD00080E090E015C080919C04E82FF0E0E3567F
:102BE000FB4F998190838F5F80939C0480939B041B
:102BF00005C061E0CE0101960E94651781E090E07A
:102C00000F90DF91CF910895FC011382128248EE5C
:102C100053E060E070E044835583668377838EEEF3
:102C200092E09183808308951092BF041092BE04B5
:102C300010929C0410929B040C94A81681E080933F
:102C40009A046093BD0410929C0410929B04089512
:102C50000C941E160F93062F21E040919B046DE902
:102C600074E08091BD040E940E1710929C04109293
:102C70009B0410929A040F9108958F929F92AF92A5
:102C8000BF92CF92DF92EF92FF920F931F93CF9359
:102C9000DF93EC01F62ED42E48015901EE2019F1F4
:102CA0000E941E161E2D143008F013E01150B8F0CB
:102CB000E881F98128E0129FB0011124A501940157
:102CC00004C056954795379527956A95D2F7CA015E
:102CD000B9010190F081E02DCE010995E7CF60E0C8
:102CE000CE010E942A164D2D413208F040E22C2DD3
:102CF00060EC74E08F2D0E94C6161092BF04809382
:102D0000BE04DF91CF911F910F91FF90EF90DF9064
:102D1000CF90BF90AF909F908F900895CF92EF92F9
:102D20000F931F93C22EE12C00E010E098010E9447
:102D30003D161F910F91EF90CF90089521E00C94D4
:102D40008E1661E00C942A168EE894E00C9404161A
:102D500010924D0581E080934B0510924A0561E089
:102D600082E10E94021F61E083E10E94021FE9EB01
:102D7000F0E080818E7F808380818D7F808388E4F6
:102D80008093B80085E48093BC000895413208F038
:102D900043C090914D059111FCCF91E090934D056A
:102DA00020934B052FEF2093E00410922505240F6C
:102DB0002093240590934C0590914C05880F892B06
:102DC00080934C0580914A05813061F410924A0548
:102DD00080914C058093BB008091BC0083FDF8CFAF
:102DE00085EC01C085EE8093BC0080914D0581305B
:102DF000E1F380912505841710F44091250526E222
:102E000035E0FB01D9018A2F821B841718F48D91BC
:102E10008193F9CF842F089580E008950F93413274
:102E200008F04AC090914D059111FCCF92E090932B
:102E30004D0500934B059FEF9093E00410922505FC
:102E400040932405FB0166E275E0DB019A2F961B97
:102E5000941718F491919D93F9CF10924C0590918D
:102E60004C05880F892B80934C0580914A05813051
:102E700061F410924A0580914C058093BB008091CB
:102E8000BC0083FDF8CF85EC01C085EE8093BC00CB
:102E9000222321F080914D058230E1F38091E004FE
:102EA0008F3F61F08091E004803251F08091E00426
:102EB000803341F483E007C081E005C080E003C0B7
:102EC00082E001C084E00F910895613298F420916E
:102ED0004D05243089F460930205FC0184E095E0FF
:102EE000DC012A2F281B261718F421912D93F9CFE6
:102EF00080E0089581E0089582E0089585ED809353
:102F0000BC008091BC0084FDFCCF10924D0508955B
:102F100085EC8093BC0010924D0508951F920F928E
:102F20000FB60F9211242F933F934F935F936F939C
:102F30007F938F939F93AF93BF93EF93FF93809172
:102F4000B900887F803609F49EC078F5883209F48C
:102F50005DC090F4803109F456C038F4882309F438
:102F6000F5C0883009F44FC0F5C0883109F44EC06F
:102F7000803209F45FC0EEC0803409F46AC058F4AE
:102F8000803309F457C0883309F0E4C08093E0042B
:102F90000E948817DFC0803509F44FC0883509F4D6
:102FA0005DC0883409F0D6C0D3C0883909F4C4C0E4
:102FB000A8F4883709F467C038F4883609F463C088
:102FC000803709F460C0C6C0883809F4B5C08039BC
:102FD00009F45FC0803809F0BDC05BC0803B09F4D4
:102FE00083C038F4803A09F466C0883A09F47CC09A
:102FF000B1C0803C09F4A4C0883C09F4A1C0883B5E
:1030000009F487C0A7C080914C0510C09091250598
:1030100080912405981770F5E091250581E08E0FC9
:1030200080932505F0E0EA5DFA4F80818093BB0034
:1030300085EC83C08093E0048BC0E091250581E09E
:103040008E0F809325058091BB00F0E0EA5DFA4F7A
:10305000808390912505809124056BC0E091250522
:1030600081E08E0F809325058091BB00F0E0EA5D42
:10307000FA4F808380914B0581116AC081E0809373
:103080004A0584EA5EC083E080934D051092E10416
:10309000CFCF8091E104803208F04EC0E091E1048E
:1030A00081E08E0F8093E1048091BB00F0E0EE514F
:1030B000FB4F8083BDCF0E9488178091E10480324E
:1030C00030F4E091E104F0E0EE51FB4F10826091AA
:1030D000E10470E0E0914605F091470582EE94E04E
:1030E00009951092E10436C084E080934D0510925A
:1030F000030510920205E0914805F09149050995F4
:1031000080910205811105C081E080930205109233
:103110000405E091030581E08E0F80930305F0E044
:10312000EC5FFA4F80818093BB0090910305809102
:103130000205981708F47CCF85E88093BC000AC08C
:1031400085EC8093BC0010924D0504C01092E00401
:103150000E947E17FF91EF91BF91AF919F918F9148
:103160007F916F915F914F913F912F910F900FBE83
:103170000F901F901895CF93DF93EC018885998568
:10318000009711F00E94D1278E8187FD05C060E075
:10319000DF91CF910C94C91EDF91CF910895CF9309
:1031A000DF93EC018E8187FD07C061E00E94C91E9C
:1031B00060E08E810E94021F81E08983DF91CF91C0
:1031C0000895EF92FF920F931F93CF93DF93EC013B
:1031D0007B0188859985009711F00E94D1279D85F4
:1031E0008A85981303C083E090E002C084E090E0F9
:1031F0008E9D80018F9D100D9E9D100D11241D83AD
:103200000C83C8010E94392799878887009741F06D
:10321000A80160E070E00E946028FB82EA8204C09E
:103220001D821C821B821A82DF91CF911F910F9108
:10323000FF90EF900895FC0121E095858285981319
:1032400020E0CB0136E0969587953A95E1F7482F37
:1032500043704587CB0154E0969587955A95E1F7E1
:10326000382F33703287CB01969587959695879541
:1032700083708387862F8370848781E06F3F710519
:1032800011F008F080E0808380859185892B51F0D2
:1032900091E0431390E0921729F062817381CF018E
:1032A0000C94E1180895CF92DF92EF92FF920F9362
:1032B0001F93CF93DF93CDB7DEB729970FB6F8945E
:1032C000DEBF0FBECDBF8C01DC0118968D919C91A5
:1032D0001997892B09F49AC00E94E81DF801C68449
:1032E000D784E088F1886C197D098E099F096233C3
:1032F00071058105910580F3F894848195819A8305
:103300008983A085B1857D01EFEFEE1AFE0A8C91CD
:103310008987D8019C9152960D90BC91A02DF801FF
:103320008489992309F42EC09C91982B98879C91AD
:10333000809589238F838F818E8388E08D83588544
:103340006F8149853D812E8189819A81F7015C9346
:1033500047FD252F3A952C93262F39F0441F00C0A6
:1033600000006C93000000C0F2CF38E041916C93F4
:103370000000019761F7F801B38BA28B49873D8369
:103380002E8338C09C91982B98879C918095892397
:103390008F838F818C8388E08B8358856F814985EB
:1033A0003B812C8189819A81F7015C9347FD252F10
:1033B00000C000C02C9300C000C000C000C000C00E
:1033C0006C930000262F3A9541F0441F000000C086
:1033D00000C000C000C000C0E8CF38E0419100C08C
:1033E0006C9300C0019709F7F801B38BA28B498752
:1033F0003B832C839A83898378940E94E81DD801AB
:103400001E966D937D938D939C93519729960FB63D
:10341000F894DEBF0FBECDBFDF91CF911F910F910A
:10342000FF90EF90DF90CF9008951F93CF93DF939D
:10343000EC01162F8981882331F08E8187FD03C02E
:1034400060E00E94C91E1E838981882341F061E0EB
:10345000812F0E94C91E60E0812F0E94021F812FD0
:1034600090E0FC01E255FF4FE491F0E0EE0FFF1F0A
:10347000E453FF4F259134913B8B2A8BFC01E65698
:10348000FF4F84918C8BDF91CF911F910895EF9224
:10349000FF920F931F93CF93DF931F92CDB7DEB7A9
:1034A0007C018B01FC011182178211861086168621
:1034B0001786108A118AB90149830E941B19B80125
:1034C000C7010E94E1184981642FC7010F90DF9165
:1034D000CF911F910F91FF90EF900C94151ACF92FE
:1034E000DF92EF92FF920F931F93CF93DF93FC0134
:1034F000828193816817790708F04DC0CA01AA2715
:10350000BB27182FC32ED42EE52EFF24DC2DC22F6F
:103510000781002361F0809FC0011124192FC09EF4
:1035200060011124DD2D209FC0011124C92FF584D5
:103530008285A085B185F81208C0CB01880F991F3C
:10354000860F971F8A0F9B1F17C0CB01880F991FEB
:10355000880F991F8A0F9B1F452F552766277727AE
:10356000DC01AF0DB11D002329F0409F9001112413
:10357000232F01C0242F2C932285DC01A20FB11D23
:103580001C932385DC01A20FB11DDC932485FC0173
:10359000E20FF11DC083DF91CF911F910F91FF903A
:1035A000EF90DF90CF900895962F50E060E070E0AC
:1035B000592B682BCB01BA010895FF920F931F93EB
:1035C000CF93DF93EC01FF24F394F60E2F81F216D4
:1035D00079F1088519852150B9F06F3F59F430E031
:1035E00040E050E06FEF7FEF80E090E00E94FA262D
:1035F000B9010CC08F2D90E0982F88270197622F7A
:1036000070E00E94B02602C060E070E0F8018C819A
:103610009D81AF01401B510B4817590740F4408171
:10362000469FC001479F900D11249193F0CFFF82D8
:10363000DF91CF911F910F91FF90089520919005F8
:103640003091910528173907B9F490914E05809172
:103650004F05981789F0E0914E05F0E0E05BFA4FD6
:10366000808120914E0530E02F5F3F4F2F7333272D
:1036700020934E0590E008958FEF9FEF08951F93DC
:10368000CF93DF93DC015C968D919C915D970097C1
:1036900049F481E090E013969C938E93129780E01A
:1036A00090E03BC05196ED91FC91529750962C9131
:1036B0005097322F30951FB75E964C915E9741FB25
:1036C000772770F941FD6095F8944081772311F0D8
:1036D000422B01C043234083EC012197F1F748E0DE
:1036E000508160FF02C0522B01C053235083EC0174
:1036F0002197F1F76695415099F78081772311F072
:10370000832301C0822B80831FBF5C968D919C9187
:103710005D970197F1F781E090E0DF91CF911F91E4
:103720000895089520919005309191052817390743
:1037300071F490914E0580914F05981741F0E091FA
:103740004E05F0E0E05BFA4F808190E008958FEF46
:103750009FEF089520919005309191052817390722
:1037600071F480914F0520914E0590E0805C9F4F51
:10377000821B910960E470E00E94C426089580E0F5
:1037800090E00895E0919005F0919105E817F90710
:1037900069F4A389B4899C918589809589238C9348
:1037A000109291051092900581E0089580E00895AF
:1037B000CF93DF93EC018A8D9B8D892BF1F0809163
:1037C0009005909191058C179D07B9F0009711F025
:1037D0000E94C21B8E8D8E7F8E8F10924F0510928D
:1037E0004E05D0939105C0939005EB89FC898081AB
:1037F0009D89892B808381E001C080E0DF91CF919A
:1038000008951F920F920FB60F9211242F933F939A
:103810004F935F936F937F938F939F93AF93BF93D8
:10382000EF93FF93E0919005F0919105309709F4A3
:1038300051C0868DA685B785958581FF04C08C9182
:10384000892329F447C08C91892309F043C0A389B7
:10385000B4899C918589809589238C9386899789E1
:103860000197F1F7208D318DA685B785758558E0D4
:1038700040E0C9010197F1F7842F90E09595879575
:10388000482F6C91672309F04068515091F7868D5D
:1038900081FD409580914F0590E001968F739927A7
:1038A00020914E05281749F0A0914F05B0E0A05B8C
:1038B000BA4F4C9380934F0503C0868D8160868FED
:1038C000828D938D0197F1F7A389B4898C919589A5
:1038D000892B8C93FF91EF91BF91AF919F918F9125
:1038E0007F916F915F914F913F912F910F900FBEFC
:1038F0000F901F9018952EEF32E0FC01318320834A
:103900000C94C21B1F93CF93DF93EC01162F6E8D87
:103910006695617081E06827812F0E94021F61E037
:10392000812F0E94C91E812F90E0FC01E656FF4FB7
:10393000E491E88BFC01E255FF4FE491F0E0EE0FDB
:10394000FF1FE453FF4F859194919A8B898BDF91F0
:10395000CF911F9108951F93CF93DF93EC01162F02
:1039600060E0812F0E94C91E8E8D81FD04C061E040
:10397000812F0E94021F1C87812F90E0FC01E656D8
:10398000FF4FE491ED87FC01E255FF4FE491F0E039
:10399000EE0FFF1FEE53FF4F859194919F878E8707
:1039A000DF91CF911F910895FF920F931F93CF93B3
:1039B000DF93EC01F62E522F1B821A8208EE13E0E1
:1039C00020E030E00C831D832E833F838EEF92E056
:1039D000998388831F8A1E8A198E188E1B8E1A8ED1
:1039E0001D8E1C8E8E8D8E7F50FB81F98E8F642FE5
:1039F000CE010E94821C6F2DCE01DF91CF911F91CD
:103A00000F91FF900C94AB1CCF93DF93EC019A01C4
:103A1000AB011B8E1A8E198E188E1F8A1E8A60E0CB
:103A200079E08DE390E00E94FA26C9012430310547
:103A300020F0B9016350710902C061E070E07D8F30
:103A40006C8FEC85E63108F068C0B9017695679512
:103A50006431710518F06351710902C061E070E0D2
:103A60007F8B6E8B069718F0C901059702C081E025
:103A700090E0998F888FC901880F991F820F931F3B
:103A800096958795969587958D30910510F00C97B2
:103A900002C081E090E09B8F8A8F20916800E8301F
:103AA00050F091E0EE3008F490E081E001C0880F22
:103AB0009A95EAF701C084E0822B809368002C85F8
:103AC000283038F02E3040F0263148F48CE690E073
:103AD00008C08DE690E005C08BE690E002C080E073
:103AE00090E09C8B8B8B283030F481E001C0880FF4
:103AF0002A95EAF70DC0822F90E02E3010F4089737
:103B000001C00E9791E001C0990F8A95EAF7892FBD
:103B10008D8B8C8D9D8D0197F1F7CE01DF91CF912B
:103B20000C94D81B1F920F920FB60F9211242F9353
:103B30003F938F939F93AF93BF9380919305909101
:103B40009405A0919505B09196053091920523E0DA
:103B5000230F2D3720F40196A11DB11D05C026E8C5
:103B6000230F0296A11DB11D20939205809393050A
:103B700090939405A0939505B09396058091970531
:103B800090919805A0919905B0919A050196A11D73
:103B9000B11D8093970590939805A0939905B093D4
:103BA0009A05BF91AF919F918F913F912F910F9067
:103BB0000FBE0F901F9018952FB7F8946091930542
:103BC0007091940580919505909196052FBF089569
:103BD0003FB7F8948091970590919805A091990529
:103BE000B0919A0526B5A89B05C02F3F19F0019604
:103BF000A11DB11D3FBF6627782F892F9A2F620F15
:103C0000711D811D911D42E0660F771F881F991F4E
:103C10004A95D1F708958F929F92AF92BF92CF921B
:103C2000DF92EF92FF926B017C010E94E81D4B0135
:103C30005C01C114D104E104F104F1F00E94C2233B
:103C40000E94E81D681979098A099B09683E73403A
:103C50008105910570F321E0C21AD108E108F1084D
:103C600088EE880E83E0981EA11CB11CC114D104FB
:103C7000E104F10429F7DDCFFF90EF90DF90CF90C2
:103C8000BF90AF909F908F900895789484B5826094
:103C900084BD84B5816084BD85B5826085BD85B5F0
:103CA000816085BDEEE6F0E0808181608083E1E89F
:103CB000F0E01082808182608083808181608083D7
:103CC000E0E8F0E0808181608083E1EBF0E08081DA
:103CD00084608083E0EBF0E0808181608083EAE7AC
:103CE000F0E0808184608083808182608083808135
:103CF000816080838081806880831092C1000895F4
:103D000080930A0108958E3008F08E5087702091BC
:103D10000A0190E4299F90011124822B80937C005A
:103D200080917A00806480937A0080917A0086FD89
:103D3000FCCF809178002091790090E0922B08953B
:103D4000833081F028F4813099F08230A1F0089519
:103D50008730A9F08830B9F08430D1F480918000A8
:103D60008F7D03C0809180008F77809380000895BD
:103D700084B58F7702C084B58F7D84BD089580910E
:103D8000B0008F7703C08091B0008F7D8093B0002A
:103D90000895CF93DF9390E0FC01E656FF4F249106
:103DA000FC01E255FF4F8491882349F190E0880F90
:103DB000991FFC01EA52FF4FA591B49184539F4F84
:103DC000FC01C591D4919FB7611108C0F8948C9102
:103DD000209582238C93888182230AC0623051F41B
:103DE000F8948C91322F309583238C938881822B89
:103DF000888304C0F8948C91822B8C939FBFDF91B1
:103E0000CF9108950F931F93CF93DF931F92CDB758
:103E1000DEB7282F30E0F901EA57FF4F8491F9010E
:103E2000E656FF4F1491F901E255FF4F049100232C
:103E3000C9F0882321F069830E94A01E6981E02FC8
:103E4000F0E0EE0FFF1FE453FF4FA591B4919FB731
:103E5000F8948C91611103C01095812301C0812BCE
:103E60008C939FBF0F90DF91CF911F910F91089579
:103E7000FC01818D228D90E0805C9F4F821B910917
:103E80008F7399270895FC01918D828D981731F0D9
:103E9000828DE80FF11D858D90E008958FEF9FEFE3
:103EA0000895FC01918D828D981761F0828DDF015C
:103EB000A80FB11D5D968C91928D9F5F9F73928F1D
:103EC00090E008958FEF9FEF089585ED90E2892BA4
:103ED00049F080E090E0892B29F00E94D5208111E3
:103EE0000C9400000895FC01848DDF01A80FB11D22
:103EF000A35ABF4F2C91848D90E001968F73992720
:103F0000848FA689B7892C93A089B1898C9180640C
:103F10008C93938D848D981306C00288F389E02DCD
:103F200080818F7D80830895CF93DF93EC01888D0E
:103F30008823C9F0EA89FB89808185FD05C0A889AD
:103F4000B9898C9186FD0FC00FB607FCF5CF808133
:103F500085FFF2CFA889B9898C9185FFEDCFCE017D
:103F60000E94731FE7CFDF91CF910895CF92DF9228
:103F7000FF920F931F93CF93DF931F92CDB7DEB7BE
:103F80006C0181E0D60158968C9358975B969C9172
:103F90005B975C968C915C97981307C05096ED9157
:103FA000FC915197808185FD2EC0F601038D10E0B4
:103FB0000F5F1F4F0F731127F02EF601848DF8123B
:103FC00011C00FB607FCF9CFD6015096ED91FC91C8
:103FD0005197808185FFF1CFC60169830E94731FCD
:103FE0006981EBCF838DE80FF11DE35AFF4F6083AA
:103FF000D6015B960C935B975296ED91FC9153978B
:10400000808180620CC0D6015696ED91FC91579745
:1040100060835096ED91FC915197808180648083FC
:1040200081E090E00F90DF91CF911F910F91FF9071
:10403000DF90CF900895BF92CF92DF92EF92FF92E0
:10404000CF93DF93EC016A017B01B22EE889F989F5
:1040500082E08083411581EE580761057105A1F06A
:1040600060E079E08DE390E0A70196010E94D826F8
:1040700021503109410951095695479537952795A2
:10408000211580E1380798F0E889F989108260E805
:1040900074E88EE190E0A70196010E94D826215095
:1040A0003109410951095695479537952795EC8572
:1040B000FD853083EE85FF852083188EEC89FD8990
:1040C000B082EA89FB89808180618083EA89FB89EB
:1040D000808188608083EA89FB8980818068808311
:1040E000EA89FB8980818F7D8083DF91CF91FF906A
:1040F000EF90DF90CF90BF9008951F920F920FB670
:104100000F9211242F938F939F93EF93FF93E0913E
:10411000AB05F091AC058081E091B105F091B2055D
:1041200082FD12C090818091B4058F5F8F732091C2
:10413000B505821751F0E091B405F0E0E556FA4F6D
:10414000958F8093B40501C08081FF91EF919F917D
:104150008F912F910F900FBE0F901F9018951F9267
:104160000F920FB60F9211242F933F934F935F93AB
:104170006F937F938F939F93AF93BF93EF93FF932F
:104180008BE995E00E94731FFF91EF91BF91AF9172
:104190009F918F917F916F915F914F913F912F915F
:1041A0000F900FBE0F901F9018958BE995E00E941D
:1041B000381F21E0892B09F420E0822F0895109206
:1041C0009E0510929D0588EE93E0A0E0B0E08093FC
:1041D0009F059093A005A093A105B093A2058EE042
:1041E00093E090939C0580939B0585EC90E09093E1
:1041F000A8058093A70584EC90E09093AA0580938E
:10420000A90580EC90E09093AC058093AB0581EC20
:1042100090E09093AE058093AD0582EC90E0909392
:10422000B0058093AF0586EC90E09093B205809343
:10423000B1051092B4051092B5051092B605109212
:10424000B7050895CF92DF92EF92FF920F931F93DD
:10425000CF93DF937C016A01EB0100E010E00C15C5
:104260001D0571F06991D701ED91FC910190F081EC
:10427000E02DC7010995892B19F00F5F1F4FEFCF74
:10428000C801DF91CF911F910F91FF90EF90DF90C8
:10429000CF9008950C94EA0BDC01ED91FC91019014
:1042A000F081E02D09946AE173E00C94EA0B0F931E
:1042B0001F93CF93DF93EC010E94EA0B8C01CE0198
:1042C0000E945321800F911FDF91CF911F910F9179
:1042D00008950F931F93CF93DF93EC010E944C211D
:1042E0008C01CE010E945321800F911FDF91CF914D
:1042F0001F910F9108958F929F92AF92BF92DF927C
:10430000EF92FF920F931F93CF93DF93CDB7DEB75A
:10431000A1970FB6F894DEBF0FBECDBF7C01F42F7E
:10432000D52ECB0119A2223008F42AE08E010F5DB0
:104330001F4F822E912CA12CB12C6F2F7D2DA5010A
:1043400094010E94D826F22FD32ECA0101501109E0
:104350006A3014F4E0E301C0E7E3E60FD801EC9320
:10436000232B242B252B49F7B801C7010E94EA0B08
:10437000A1960FB6F894DEBF0FBECDBFDF91CF91EF
:104380001F910F91FF90EF90DF90BF90AF909F90A3
:104390008F900895CF92DF92EF92FF920F931F9329
:1043A000CF93DF93EC016A017B012115310579F48C
:1043B000E881F9810190F081E02D642FDF91CF91A8
:1043C0001F910F91FF90EF90DF90CF9009942A30CA
:1043D0003105E9F477FF1AC06DE20E944C218C018F
:1043E00044275527BA014C195D096E097F092AE057
:1043F000CE010E947B21800F911FDF91CF911F91F1
:104400000F91FF90EF90DF90CF9008952AE0B701D1
:10441000A601CE01DF91CF911F910F91FF90EF90F8
:10442000DF90CF900C947B219A01AB01662757FD5A
:104430006095762F0C94CA210F931F93CF93DF932F
:10444000EC019A01AB01662757FD6095762F0E941B
:10445000CA218C01CE010E945321800F911FDF9150
:10446000CF911F910F9108952115310541F4DC0181
:10447000ED91FC910190F081E02D642F09940C9452
:104480007B210F931F93CF93DF93EC019A01462F6B
:1044900050E060E070E00E9434228C01CE010E9466
:1044A0005321800F911FDF91CF911F910F9108959C
:1044B0000F931F93CF93DF93EC010E9434228C0162
:1044C000CE010E945321800F911FDF91CF911F9148
:1044D0000F9108954F925F926F927F928F929F9269
:1044E000AF92BF92CF92DF92EF92FF920F931F9302
:1044F000CF93DF93EC016A017B01B22E9A01AB01ED
:10450000C701B6010E940426882319F06DE173E00B
:1045100027C026013701E89477F82FEF3FEF4FE7E8
:104520005FE7C301B2010E94042681110DC02FEF85
:104530003FEF4FE75FE7C301B2010E94282418163E
:104540001CF461E273E00CC02FEF3FEF4FE75FE434
:10455000C701B6010E9477251816ACF465E273E036
:10456000CE01DF91CF911F910F91FF90EF90DF90DF
:10457000CF90BF90AF909F908F907F906F905F9003
:104580004F900C94EA0B2FEF3FEF4FE75FECC70122
:10459000B6010E94282487FDE1CF20E030E0A90188
:1045A000C701B6010E94282487FF0AC06DE2CE0130
:1045B0000E944C218C01F7FAF094F7F8F09402C0B5
:1045C00000E010E0A12C60E070E080E09FE3AB141D
:1045D00041F020E030E040E251E40E942C24A3941A
:1045E000F6CF9B01AC01C701B6010E94C4236B0149
:1045F0007C010E9499242B013C010E94C5249B014F
:10460000AC01C701B6010E94C3236B017C012AE003
:10461000B301A201CE010E947B21080F191FBB200C
:1046200039F069E273E0CE010E94EA0B080F191F0E
:104630007B2C772041F120E030E040E251E4C701DB
:10464000B6010E947B256B017C010E9494244B01E2
:10465000AA2497FCA094BA2C2AE030E0B501A4016A
:10466000CE010E94CA21080F191FC501B4010E9482
:10467000C7249B01AC01C701B6010E94C3236B0193
:104680007C017A94D6CFC801DF91CF911F910F9111
:10469000FF90EF90DF90CF90BF90AF909F908F9062
:1046A0007F906F905F904F9008950C946A220F93C3
:1046B0001F93CF93DF93EC010E946A228C01CE01FD
:1046C0000E945321800F911FDF91CF911F910F9175
:1046D00008954F925F926F927F92AF92BF92CF9266
:1046E000DF92EF92FF920F931F93CF93DF93CDB79B
:1046F000DEB729013A01621B730B840B950B2989E4
:104700003A894B895C892A193B094C095D09298B37
:104710003A8B4B8B5C8B9B01AC0169897A898B89C5
:104720009C890E94A026E418F50806091709A8012B
:1047300097010E94FA262A0D3B1D4C1D5D1DCA01E2
:10474000B901DF91CF911F910F91FF90EF90DF9012
:10475000CF90BF90AF907F906F905F904F900895F3
:1047600008950E94451E0E94B0230E94000CC5E6D9
:10477000DFE10E9474102097E1F30E94651FF9CFDA
:104780000C94392708955058BB27AA270ED075C11D
:1047900066D130F06BD120F031F49F3F11F41EF45C
:1047A0005BC10EF4E095E7FB51C1E92F77D180F3AF
:1047B000BA17620773078407950718F071F49EF51E
:1047C0008FC10EF4E0950B2EBA2FA02D0B01B9016D
:1047D00090010C01CA01A0011124FF27591B99F077
:1047E000593F50F4503E68F11A16F040A22F232F83
:1047F000342F4427585FF3CF469537952795A795D3
:10480000F0405395C9F77EF41F16BA0B620B730B79
:10481000840BBAF09150A1F0FF0FBB1F661F771FEA
:10482000881FC2F70EC0BA0F621F731F841F48F49F
:10483000879577956795B795F7959E3F08F0B3CF25
:104840009395880F08F09927EE0F9795879508950F
:10485000D9D008F481E008950CD00FC107D140F001
:10486000FED030F021F45F3F19F0F0C0511139C192
:10487000F3C014D198F39923C9F35523B1F3951BD1
:10488000550BBB27AA2762177307840738F09F5F71
:104890005F4F220F331F441FAA1FA9F333D00E2EE0
:1048A0003AF0E0E830D091505040E695001CCAF74D
:1048B00029D0FE2F27D0660F771F881FBB1F261712
:1048C00037074807AB07B0E809F0BB0B802DBF01E5
:1048D000FF2793585F4F2AF09E3F510568F0B6C0FE
:1048E00000C15F3FECF3983EDCF3869577956795C2
:1048F000B795F7959F5FC9F7880F911D9695879596
:1049000097F90895E1E0660F771F881FBB1F6217B4
:1049100073078407BA0720F0621B730B840BBA0B72
:10492000EE1F88F7E095089504D06894B111D9C0BE
:104930000895BCD088F09F5790F0B92F9927B751B0
:10494000A0F0D1F0660F771F881F991F1AF0BA9553
:10495000C9F712C0B13081F0C3D0B1E00895C0C032
:10496000672F782F8827B85F39F0B93FCCF3869549
:1049700077956795B395D9F73EF4909580957095A6
:1049800061957F4F8F4F9F4F0895E89409C097FB23
:104990003EF490958095709561957F4F8F4F9F4F16
:1049A0009923A9F0F92F96E9BB279395F69587955A
:1049B00077956795B795F111F8CFFAF4BB0F11F41D
:1049C00060FF1BC06F5F7F4F8F4F9F4F16C08823C4
:1049D00011F096E911C0772321F09EE8872F762FFA
:1049E00005C0662371F096E8862F70E060E02AF03B
:1049F0009A95660F771F881FDAF7880F9695879527
:104A000097F90895990F0008550FAA0BE0E8FEEFFB
:104A100016161706E807F907C0F012161306E40782
:104A2000F50798F0621B730B840B950B39F40A267B
:104A300061F0232B242B252B21F408950A2609F459
:104A4000A140A6958FEF811D811D089597F99F675D
:104A500080E870E060E008959FEF80EC0895002406
:104A60000A941616170618060906089500240A94D3
:104A700012161306140605060895092E0394000C59
:104A800011F4882352F0BB0F40F4BF2B11F460FFE8
:104A900004C06F5F7F4F8F4F9F4F089557FD905811
:104AA000440F551F59F05F3F71F04795880F97FBF2
:104AB000991F61F09F3F79F08795089512161306AC
:104AC0001406551FF2CF4695F1DF08C016161706DB
:104AD0001806991FF1CF8695710561050894089510
:104AE000E894BB2766277727CB0197F908958ADFDB
:104AF00008F48FEF08950BD0C0CFB1DF28F0B6DFF8
:104B000018F0952309F0A2CFA7CF1124EACFC6DF72
:104B1000A0F3959FD1F3950F50E0551F629FF001D0
:104B2000729FBB27F00DB11D639FAA27F00DB11D29
:104B3000AA1F649F6627B00DA11D661F829F2227B2
:104B4000B00DA11D621F739FB00DA11D621F839F39
:104B5000A00D611D221F749F3327A00D611D231F0F
:104B6000849F600D211D822F762F6A2F11249F575D
:104B700050408AF0E1F088234AF0EE0FFF1FBB1F80
:104B8000661F771F881F91505040A9F79E3F51051F
:104B900070F05CCFA6CF5F3FECF3983EDCF38695D8
:104BA00077956795B795F795E7959F5FC1F7FE2BCA
:104BB000880F911D9695879597F9089577DFE0F016
:104BC0009E37D8F09639B8F49E3848F4672F782F7E
:104BD0008827985FF9CF869577956795939595394E
:104BE000D0F3B62FB1706B0F711D811D20F4879526
:104BF0007795679593950CC026C073CF9F9357D038
:104C00000F9007FCEE5F7AC0FDDE880B990B0895CC
:104C1000882371F4772321F09850872B762F07C0D3
:104C2000662311F499270DC09051862B70E060E047
:104C30002AF09A95660F771F881FDAF7880F9695E6
:104C4000879597F908959F3F31F0915020F487950B
:104C500077956795B795880F911D9695879597F9E4
:104C60000895DF93CF931F930F93FF92EF92DF92FC
:104C70007B018C01689405C0DA2EEF0148DFFE014C
:104C8000E894A5912591359145915591AEF3EF01A9
:104C90008CDDFE019701A801DA9479F7DF90EF909F
:104CA000FF900F911F91CF91DF910895D5CEFEDE39
:104CB000E8F3E894E0E0BB279F57F0F02AED3FE0EF
:104CC00049EC06C0EE0FBB0F661F771F881F28F048
:104CD000B23A62077307840728F0B25A620B730B6B
:104CE000840BE3959A9572F7803830F49A95BB0F50
:104CF000661F771F881FD2F79048A7CFEF93E0FF7A
:104D000006C0A2EA2AED3FE049EC5FEB4EDDB5DEDE
:104D10000F90039401FC9058E8E6F0E000C09F93E8
:104D20008F937F936F93FF93EF939B01AC01E3DE2F
:104D3000EF91FF9196DF2F913F914F915F91DBCEE5
:104D4000DB018F939F930E941927BF91AF91A29F80
:104D5000800D911DA39F900DB29F900D1124089579
:104D6000AA1BBB1B51E107C0AA1FBB1FA617B70791
:104D700010F0A61BB70B881F991F5A95A9F78095AD
:104D80009095BC01CD01089597FB072E16F4009471
:104D900007D077FD09D00E94B02607FC05D03EF46D
:104DA000909581959F4F0895709561957F4F0895D7
:104DB000A1E21A2EAA1BBB1BFD010DC0AA1FBB1F1F
:104DC000EE1FFF1FA217B307E407F50720F0A21B91
:104DD000B30BE40BF50B661F771F881F991F1A94FE
:104DE00069F760957095809590959B01AC01BD0128
:104DF000CF010895052E97FB1EF400940E94112701
:104E000057FD07D00E94D82607FC03D04EF40C941F
:104E1000112750954095309521953F4F4F4F5F4F4B
:104E2000089590958095709561957F4F8F4F9F4F16
:104E300008950E942A27A59F900DB49F900DA49FCE
:104E4000800D911D11240895EE0FFF1F0590F49120
:104E5000E02D0994A29FB001B39FC001A39F700DE4
:104E6000811D1124911DB29F700D811D1124911D72
:104E70000895CF93DF938230910510F482E090E0A3
:104E8000E0913A06F0913B0620E030E0A0E0B0E08F
:104E9000309739F14081518148175907B8F04817C8
:104EA000590771F482819381109729F013969C938E
:104EB0008E9312972CC090933B0680933A0627C09E
:104EC0002115310531F04217530718F0A901DB0114
:104ED00001C0EF019A01BD01DF010280F381E02DE5
:104EE000D7CF21153105F9F0281B390B24303105B6
:104EF00080F48A819B816115710521F0FB01938308
:104F0000828304C090933B0680933A06FE0132965A
:104F100044C0FE01E20FF31F8193919322503109A7
:104F2000398328833AC02091380630913906232BE3
:104F300041F420910201309103013093390620930E
:104F4000380620910001309101012115310541F40D
:104F50002DB73EB74091040150910501241B350B3C
:104F6000E0913806F0913906E217F307A0F42E1B02
:104F70003F0B2817390778F0AC014E5F5F4F2417BD
:104F8000350748F04E0F5F1F50933906409338069F
:104F90008193919302C0E0E0F0E0CF01DF91CF91E7
:104FA0000895CF93DF93009709F487C0FC013297EF
:104FB00013821282C0913A06D0913B06209781F469
:104FC00020813181280F391F809138069091390650
:104FD0008217930779F5F0933906E09338066DC090
:104FE000DE0120E030E0AE17BF0750F412964D917D
:104FF0005C9113979D014115510509F1DA01F3CF39
:10500000B383A28340815181840F951F8A179B0728
:1050100071F48D919C911197840F951F0296918345
:10502000808312968D919C9113979383828321158F
:10503000310529F4F0933B06E0933A063EC0D901CE
:105040001396FC93EE9312974D915D91A40FB51FAB
:10505000EA17FB0779F480819181840F951F0296EE
:10506000D90111969C938E938281938113969C9380
:105070008E931297E0E0F0E08A819B81009719F00F
:10508000FE01EC01F9CFCE01029628813981820F11
:10509000931F20913806309139062817390769F493
:1050A000309729F410923B0610923A0602C0138200
:1050B0001282D0933906C0933806DF91CF910895BC
:1050C000DC0101C06D9341505040E0F7089510E0BD
:1050D000C6EED0E004C0FE010E9426272296C83EFC
:0850E000D107C9F7F894FFCFD6
:1050E80000003C0680000100000001466F756E64F8
:1050F8002073656E736F72004E6F205443533334C0
:1051080037323520666F756E64202E2E2E20636828
:1051180065636B20796F757220636F6E6E6563745B
:10512800696F6E7300466972737420646574656391
:1051380074696F6E20646F6E65004465746563748E
:10514800696F6E20646F6E653A2000523A09000953
:10515800473A200009423A2000094D6178207661DB
:105168006C75653A2000202D2D3E2000696E207256
:10517800616E64004D414141414141414C004D55F2
:10518800204D4141414C00446972656374696F6EFA
:105198003A2000536F7272792C2074686572652703
:1051A8007320612070726F626C656D207769746816
:1051B8002074686520646972656374696F6E200085
:1051C80050726576696F7573206D696C6C69733A96
:1051D800200020616E64206D6F6D656E74206973A8
:1051E8003A2000536574207570206E6578742073BA
:1051F800746174652076616C75650020656E642045
:10520800736574757000733A7265643F00733A672A
:105218007265656E3F00733A626C75653F00733A5C
:105228006E6F6E653F002300783A2000793A2000BF
:105238007A3A200031207365636F6E640064696692
:105248006620626967676572207468616E20330042
:105258006469666620736D616C6C65722074686140
:105268006E2033006E6F74206D6F76696E67210053
:105278006D6F766564210043757272656E74207374
:10528800746174653A20007472616E736974696F31
:105298006E20746F3A2000696E69742074696D65B8
:1052A8002069733A20002066696E69736820746902
:1052B8006D652069733A2000206D61707065642007
:1052C80074696D652069733A200000000000D515E7
:1052D800A8157D1585159815A715000000003F1B1A
:1052E8002221AA1B1E1B921B911B00000000B61F47
:1052F8002221381F511F431F941F0D0A006E616E33
:0C53080000696E66006F7666002E0000E3
:107E0000112484B714BE81FFF0D085E080938100F7
:107E100082E08093C00088E18093C10086E0809377
:107E2000C20080E18093C4008EE0C9D0259A86E02C
:107E300020E33CEF91E0309385002093840096BBD3
:107E4000B09BFECF1D9AA8958150A9F7CC24DD24C4
:107E500088248394B5E0AB2EA1E19A2EF3E0BF2EE7
:107E6000A2D0813461F49FD0082FAFD0023811F036
:107E7000013811F484E001C083E08DD089C08234E0
:107E800011F484E103C0853419F485E0A6D080C0E4
:107E9000853579F488D0E82EFF2485D0082F10E0AE
:107EA000102F00270E291F29000F111F8ED06801E7
:107EB0006FC0863521F484E090D080E0DECF843638
:107EC00009F040C070D06FD0082F6DD080E0C81688
:107ED00080E7D80618F4F601B7BEE895C0E0D1E017
:107EE00062D089930C17E1F7F0E0CF16F0E7DF06D8
:107EF00018F0F601B7BEE89568D007B600FCFDCFD4
:107F0000A601A0E0B1E02C9130E011968C91119780
:107F100090E0982F8827822B932B1296FA010C0160
:107F200087BEE89511244E5F5F4FF1E0A038BF0790
:107F300051F7F601A7BEE89507B600FCFDCF97BE46
:107F4000E89526C08437B1F42ED02DD0F82E2BD052
:107F50003CD0F601EF2C8F010F5F1F4F84911BD097
:107F6000EA94F801C1F70894C11CD11CFA94CF0C13
:107F7000D11C0EC0853739F428D08EE10CD085E9AC
:107F80000AD08FE07ACF813511F488E018D01DD067
:107F900080E101D065CF982F8091C00085FFFCCF94
:107FA0009093C60008958091C00087FFFCCF809118
:107FB000C00084FD01C0A8958091C6000895E0E648
:107FC000F0E098E1908380830895EDDF803219F02E
:107FD00088E0F5DFFFCF84E1DECF1F93182FE3DFCA
:107FE0001150E9F7F2DF1F91089580E0E8DFEE27F6
:047FF000FF270994CA
:027FFE00040479
:0400000300007E007B
:00000001FF
